{
  "_format": "hh-sol-artifact-1",
  "contractName": "Game",
  "sourceName": "contracts/Game.sol",
  "abi": [
    {
      "inputs": [
        {
          "internalType": "uint256",
          "name": "userInput",
          "type": "uint256"
        }
      ],
      "name": "gameResults",
      "outputs": [
        {
          "internalType": "uint256",
          "name": "input1",
          "type": "uint256"
        },
        {
          "internalType": "uint256",
          "name": "input2",
          "type": "uint256"
        },
        {
          "internalType": "bool",
          "name": "output",
          "type": "bool"
        }
      ],
      "stateMutability": "nonpayable",
      "type": "function"
    },
    {
      "inputs": [
        {
          "internalType": "uint256",
          "name": "input1",
          "type": "uint256"
        },
        {
          "internalType": "uint256",
          "name": "input2",
          "type": "uint256"
        }
      ],
      "name": "operator",
      "outputs": [
        {
          "internalType": "uint256",
          "name": "",
          "type": "uint256"
        }
      ],
      "stateMutability": "pure",
      "type": "function"
    }
  ],
  "bytecode": "0x60806040526000805534801561001457600080fd5b5061045e806100246000396000f3fe608060405234801561001057600080fd5b50600436106100365760003560e01c8063f2b2006b1461003b578063fdba1b7c1461006b575b600080fd5b61005560048036038101906100509190610190565b61009d565b60405161006291906101df565b60405180910390f35b610085600480360381019061008091906101fa565b6100af565b60405161009493929190610242565b60405180910390f35b60008082841690508091505092915050565b60008060006100be60646100fa565b92506100ca60646100fa565b91506100d6838361009d565b60018190555083600154036100ee57600190506100f3565b600090505b9193909250565b600080600081548092919061010e906102a8565b919050555081423360005460405160200161012b9392919061038b565b6040516020818303038152906040528051906020012060001c61014e91906103f7565b9050919050565b600080fd5b6000819050919050565b61016d8161015a565b811461017857600080fd5b50565b60008135905061018a81610164565b92915050565b600080604083850312156101a7576101a6610155565b5b60006101b58582860161017b565b92505060206101c68582860161017b565b9150509250929050565b6101d98161015a565b82525050565b60006020820190506101f460008301846101d0565b92915050565b6000602082840312156102105761020f610155565b5b600061021e8482850161017b565b91505092915050565b60008115159050919050565b61023c81610227565b82525050565b600060608201905061025760008301866101d0565b61026460208301856101d0565b6102716040830184610233565b949350505050565b7f4e487b7100000000000000000000000000000000000000000000000000000000600052601160045260246000fd5b60006102b38261015a565b91507fffffffffffffffffffffffffffffffffffffffffffffffffffffffffffffffff82036102e5576102e4610279565b5b600182019050919050565b6000819050919050565b61030b6103068261015a565b6102f0565b82525050565b600073ffffffffffffffffffffffffffffffffffffffff82169050919050565b600061033c82610311565b9050919050565b60008160601b9050919050565b600061035b82610343565b9050919050565b600061036d82610350565b9050919050565b61038561038082610331565b610362565b82525050565b600061039782866102fa565b6020820191506103a78285610374565b6014820191506103b782846102fa565b602082019150819050949350505050565b7f4e487b7100000000000000000000000000000000000000000000000000000000600052601260045260246000fd5b60006104028261015a565b915061040d8361015a565b92508261041d5761041c6103c8565b5b82820690509291505056fea26469706673582212208bf6c3637acd8e2c5042d4ce4f3971136f9ab305764921d96e83f4bf3707999f64736f6c63430008110033",
  "linkReferences": {},
  "deployedLinkReferences": {}
}